:100000000C9450000C94A6000C946D000C946D00A0
:100010000C946D000C946D000C946D000C946D00AC
:100020000C946D000C946D000C946D000C946D009C
:100030000C946D000C946D000C946D000C946D008C
:100040000C946D000C946D000C946D000C946D007C
:100050000C946D000403090412036F006200640035
:10006000650076002E0061007400120354006500E4
:100070006D0070006C0061007400650012011001D9
:10008000FF000008C016DC050001010200010902A2
:10009000120001010080320904000000000000008D
:1000A00011241FBECFE5D4E0DEBFCDBF10E0A0E637
:1000B000B0E0EAEBF7E002C005900D92A236B1077E
:1000C000D9F710E0A2E6B0E001C01D92AD38B1074B
:1000D000E1F70E9471000C94DB030C94000080E0B7
:1000E00008952EE088E190E00FB6F894A89581BDC0
:1000F0000FBE21BD0E94CB028C9A20E040E757E161
:10010000A895CA010197F1F72F5F2A3FC9F78C988C
:100110007894A8950E94D202FCCFA82FB92F80E036
:1001200090E041E050EA609530E009C02D918227CF
:100130009795879510F084279527305EC8F36F5FF9
:10014000A8F30895EADF8D939D930895CF93CFB7D9
:10015000CF93C395849BE9F7849B09C0849B07C018
:10016000849B05C0849B03C0849B01C0A1C0DF9316
:10017000C0917000DD27C958DF4F849B02C0DF911A
:10018000EBCF2F930F931F9300B32FEF04FB20F9B6
:100190004F933F9310B34FEF012704FB21F93BE04E
:1001A00031C04E7F012F10B3216028C0102F4D7F2A
:1001B0002260000000B329C04B7F2460012F0000A3
:1001C00010B32BC010B3477F28602AC04F7E00B306
:1001D00020612CC04F7D10B320622FC04F7B00B335
:1001E000206432C0422700B349934FEF000010272C
:1001F00014FB20F910B31471C9F1297F91F2012782
:1002000004FB21F900B3237F89F2315058F1102704
:1002100014FB22F910B3277E79F2012704FB23F99E
:100220002F7C81F200B3102714FB24F92F7971F28F
:1002300000C010B3012704FB25F92F7359F200C049
:1002400000B3102714FB26F9223040F200C010B38F
:10025000012704FB27F9243028F64F77206810B3D4
:100260000000F9CF10E41ABF002717C03B503195AA
:10027000C31BD04010E41ABF0881033CE9F00B34E3
:10028000D9F020916E001981110F1213EDCF0936AC
:1002900041F10D3211F0013E39F7009375003F91A5
:1002A0004F911F910F912F91DF91CAB7C6FD51CF8A
:1002B000CF91CFBFCF91189520917500222379F36C
:1002C00010917300112311F5343012F13093730043
:1002D00020936F00109170003BE0311B3093700051
:1002E00017C00091730001308CF40AE53091600072
:1002F00034FD10C000936000C3E6D0E00FC0279526
:10030000A8F45150A9F4220F0000F9CF4AE503C028
:1003100042ED01C0432FC4E1D0E032E011B31461DB
:10032000949A11BB02B320E414E15F93012756E0D5
:1003300002BB279520F4515021F4220FF9CF012759
:1003400056E000003B5A02BBD0F2279528F45150EA
:1003500029F4220F0000F9CF012756E0279502BBB0
:1003600020F4515021F4220FF9CF012756E02991B2
:10037000332302BB21F60B7E10917400110FC6517E
:10038000D04002BB11F010936E0010E41ABF006160
:1003900011B31B7E402F4B7E5F9100C000C002BB9B
:1003A00011BB42BB7CCF87B3807F87BBC59AC49803
:1003B00082E08A95F1F722E034E0C69A822F8A958E
:1003C000F1F786B38295807F922F9A95F1F7C698C0
:1003D000932F9A95F1F7C69A922F9A95F1F796B3C3
:1003E000922F9A95F1F7C698932F9A95F1F787FD7A
:1003F000E4CFC59887B38F6087BB0895282F662305
:1004000011F4C49801C0C49A82E08A95F1F7C69AA3
:1004100088B3922F92959F70807F982B98BB94E021
:10042000892F8A95F1F7C698892F8A95F1F7C69A90
:1004300088B32F70807F822B88BB892F8A95F1F734
:10044000C6989A95F1F70E94D30108951F93182F2B
:100450008CE291E02CE231E0F9013197F1F701975C
:10046000D9F787B38F6087BBBE9ABC9ABD9A88B311
:10047000807F88BBC698C598C49881E08A95F1F7BB
:10048000C69AC19A84E0982F9A95F1F7C6988A95F2
:10049000F1F70E94D30160E0812F8C600E94FE0181
:1004A00060E088E20E94FE011F910895CF93DF93E0
:1004B000EC0104C061E00E94FE012196888188233E
:1004C000C9F7DF91CF910895EF92FF920F931F9399
:1004D000DF93CF9300D000D00F92CDB7DEB79C0151
:1004E0008B01FE01319685E0DF011D928A95E9F7C7
:1004F000FE0135960DC0C9016AE070E00E94B403A8
:100500008083C9016AE070E00E94B4039B013197C7
:100510002115310581F7BFEF0F3F1B0779F420E06C
:1005200030E0AE014F5F5F4F02C02F5F3F4FFA01D7
:10053000E20FF31F80818823C1F304C025E030E07F
:10054000201B310B7E010894E11CF11CE20EF31E0E
:10055000890109C0F70181917F0161E0805D0E94FE
:10056000FE010F5F1F4F05301105A4F30F900F9090
:100570000F900F900F90CF91DF911F910F91FF90EF
:10058000EF900895883230F46111806460E08068F3
:100590000E94FE01089585B7826085BF8BB7806495
:1005A0008BBF08951F93CF93DF9390917300935067
:1005B00097FD7EC02091700080916F008D3209F010
:1005C00075C0983009F072C0CCE0D0E0C21BD109F0
:1005D000C958DF4F83EC809363008AE58093600005
:1005E000109262008881807629F0CE010E946F000F
:1005F000282F53C09A8110926C008981882321F49E
:1006000010926D0022E043C0853019F4909374007D
:100610003DC0863061F58B81813019F48CE790E024
:1006200016C0823019F48EE890E011C08330D1F406
:100630008A81882341F484E590E09093720080934E
:10064000710024E010C0813041F488E590E090937F
:1006500072008093710022E106C0823019F48AE6AC
:1006600090E0F5CF20E080E48093620016C08830EF
:1006700021F421E086E790E00CC0893019F49093D2
:10068000760004C08A3011F421E001C020E08CE63D
:1006900090E090937200809371008F81882321F401
:1006A0008E81821708F4282F209361001092730026
:1006B0008091600084FF4AC0809161008F3F09F4FF
:1006C00045C0182F893008F018E0811B8093610025
:1006D0008091630098E8892780936300112341F19A
:1006E00020917100309172008091620086FF0DC0F0
:1006F000A4E6B0E080E090E0F901E80FF91FE49192
:10070000ED9301961817C1F708C0912FD901E4E6BF
:10071000F0E08D9181939150E1F71150812F90E09D
:100720001F5F0196820F931F909372008093710058
:10073000612F84E690E00E94A200612F6C5F6C3014
:1007400019F08FEF809361006093600094E180B3B3
:10075000847131F49150D9F71092740010926E00A8
:10076000DF91CF911F91089597FB092E07260AD09C
:1007700077FD04D00CD006D000201AF47095619556
:100780007F4F0895F6F7909581959F4F0895AA1B86
:10079000BB1B51E107C0AA1FBB1FA617B70710F06C
:1007A000A61BB70B881F991F5A95A9F7809590959E
:0A07B000BC01CD010895F894FFCFBD
:0207BA005AFFE4
:00000001FF
