:100000000C946C000C9414020C9489000C948900DC
:100010000C9489000C9489000C9489000C9489003C
:100020000C9489000C9489000C9489000C9489002C
:100030000C9489000C9489000C9489000C9489001C
:100040000C9489000C9489000C9489000C9489000C
:100050000C94890005010902A1010901A10005090B
:1000600019012903150025019503750181029501E8
:100070007505810305010930093109381581257F8E
:10008000750895038106C0C0040309040C034D00E4
:100090006F007500730065000C034D006F00750064
:1000A000730065001201100100000008E803E80376
:1000B00000010102000109022200010100800A0979
:1000C00004000001030000000921010100012234A5
:1000D000000705810308006411241FBECFE5D4E0AA
:1000E000DEBFCDBF10E0A0E6B0E0E8E5F9E002C079
:1000F00005900D92A436B107D9F710E0A4E6B0E060
:1001000001C01D92A23AB107E1F70E94A0010C9430
:10011000AA040C94000087B3807F87BBC59AC4985B
:1001200081E08A95F1F721E0C69A822F8A95F1F74E
:1001300086B38295807F922F9A95F1F7C698922F79
:100140009A95F1F7C69A922F9A95F1F796B3922F56
:100150009A95F1F7C698922F9A95F1F787FDE4CF1B
:10016000C59887B38F6087BB0895382F662311F435
:10017000C49801C0C49A21E0822F8A95F1F7C69AEB
:1001800088B3932F92959F70807F982B98BB822F76
:100190008A95F1F7C698822F8A95F1F7C69A88B3A7
:1001A0003F70807F832B88BB822F8A95F1F7C6989A
:1001B0002A95F1F70E948B0008951F93182F8CE465
:1001C0009DE10197F1F787B38F6087BBBE9ABC9A18
:1001D000BD9A88B3807F88BBC698C598C49881E0D3
:1001E000982F9A95F1F7C69AC19A982F9A95F1F798
:1001F000C6988A95F1F70E948B0060E0812F8C6091
:100200000E94B50060E088E20E94B5001F91089549
:10021000CF93DF93EC0104C061E00E94B50021960A
:1002200088818823C9F7DF91CF910895EF92FF92DB
:100230000F931F93DF93CF9300D000D00F92CDB7D1
:10024000DEB79C018B01FE01319685E0DF011D9236
:100250008A95E9F7FE0135960DC0C9016AE070E0A4
:100260000E9483048083C9016AE070E00E948304D5
:100270009B0131972115310581F7BFEF0F3F1B0718
:1002800079F420E030E0AE014F5F5F4F02C02F5F96
:100290003F4FFA01E20FF31F80818823C1F304C0AE
:1002A00025E030E0201B310B7E010894E11CF11C9D
:1002B000E20EF31E890109C0F70181917F0161E01F
:1002C000805D0E94B5000F5F1F4F05301105A4F33C
:1002D0000F900F900F900F900F90CF91DF911F9183
:1002E0000F91FF90EF900895883230F4611180648F
:1002F00060E080680E94B5000895FC0180818076EE
:100300008032E1F48181813041F486E690E090937F
:1003100087008093860084E00895823041F48AE665
:1003200090E0909387008093860081E008958A3062
:1003300029F4838180936A0080E0089580E0089525
:100340002EE088E190E00FB6F894A89581BD0FBE2D
:1003500021BD0E944E038C9A20E04AEF50E004C079
:10036000A895CA010197F1F72150D1F78C9878949C
:10037000A8950E945B038091770084FFF9CF40919C
:10038000640050916500141615061CF080EE9FEF76
:1003900002C080E290E0840F951F36E09595879526
:1003A0003A95E1F7809367002091600030916100F9
:1003B000280F311D30936100209360001216130640
:1003C0001CF080EE9FEF02C080E290E0820F931F4E
:1003D00026E0959587952A95E1F780936800481B5C
:1003E0005109509365004093640064E086E690E014
:1003F0000E946104BDCFA82FB92F80E090E041E0BA
:1004000050EA609530E009C02D9182279795879535
:1004100010F084279527305EC8F36F5FA8F3089526
:10042000EADF8D939D930895CF93CFB7CF93C39574
:10043000849BE9F7849B09C0849B07C0849B05C00B
:10044000849B03C0849B01C0A3C0DF93C09185003F
:10045000DD27C457DF4F849B02C0DF91EBCF2F9382
:100460000F931F9300B32FEF04FB20F94F933F939B
:1004700010B34FEF012704FB21F93BE031C04E7F61
:10048000012F10B3216028C0102F4D7F2260000083
:1004900000B329C04B7F2460012F000010B32BC094
:1004A00010B3477F28602AC04F7E00B320612CC064
:1004B0004F7D10B320622FC04F7B00B3206432C049
:1004C000422700B349934FEF0000102714FB20F997
:1004D00010B31471C9F1297F91F2012704FB21F9AE
:1004E00000B3237F89F2315058F1102714FB22F911
:1004F00010B3277E79F2012704FB23F92F7C81F2C8
:1005000000B3102714FB24F92F7971F200C010B347
:10051000012704FB25F92F7359F200C000B31027FF
:1005200014FB26F9223040F200C010B3012704FB6F
:1005300027F9243028F64F77206810B30000F9CF50
:1005400010E41ABF002719C03B503195C31BD0409F
:1005500010E41ABF0881033CF9F00B34E9F0209154
:1005600083001981110F1213EDCF4A81441F093600
:1005700041F10D3211F0013E29F700938A003F91BD
:100580004F911F910F912F91DF91CAB7C6FD4FCFA9
:10059000CF91CFBFCF91189520918A00222379F374
:1005A00010918800112369F534306AF13093880086
:1005B00020938400109185003BE0311B309385002F
:1005C00022C0009188000130E4F40AE54F7049F43C
:1005D0003091620034FD19C000936200CCE6D0E097
:1005E00018C03091770034FD10C000937700C8E741
:1005F000D0E00FC02795A8F45150A9F4220F0000B5
:10060000F9CF4AE503C042ED01C0432FC4E1D0E079
:1006100032E011B31461949A11BB02B320E414E1E7
:100620005F93012756E002BB279520F4515021F437
:10063000220FF9CF012756E000003B5A02BBD0F24F
:10064000279528F4515029F4220F0000F9CF0127F3
:1006500056E0279502BB20F4515021F4220FF9CF28
:10066000012756E02991332302BB21F60B7E10911E
:100670008900110FC651D04002BB11F010938300C6
:1006800010E41ABF006111B31B7E402F4B7E5F91B7
:1006900000C000C002BB11BB42BB71CF85B78260F6
:1006A00085BF8BB780648BBF8BE4809378008AE52D
:1006B0008093770008951F93CF93DF9390918800E4
:1006C000935097FDA2C020918500809184008D32C7
:1006D00009F099C0983009F096C0CCE0D0E0C21B78
:1006E000D109C457DF4F83EC80936C008AE5809377
:1006F000620010926B008881807629F0CE010E9402
:100700007D01282F77C09A811092750089818823F6
:1007100021F41092760022E067C0853019F490939E
:10072000890061C0863009F04AC08B81813041F474
:1007300084EA90E0909387008093860022E13BC09A
:10074000823041F486EB90E090938700809386009E
:1007500022E231C08330D1F48A81882341F488E8D1
:1007600090E0909387008093860024E024C081303D
:1007700019F48CE890E004C08230E1F488E990E05C
:1007800090938700809386002CE015C0813241F45D
:1007900088EC90E0909387008093860029E00BC05E
:1007A000823241F484E590E0909387008093860044
:1007B00024E301C020E080E480936B001BC08830FC
:1007C00021F421E08BE890E011C0893019F4909376
:1007D0008B0009C08A3011F421E006C08B3019F477
:1007E0008BE48093780020E085E790E09093870089
:1007F000809386008F81882321F48E81821708F4EC
:10080000282F20936300109288008091620084FF5B
:100810004AC0809163008F3F09F445C0182F89308A
:1008200008F018E0811B8093630080916C0098E8C9
:10083000892780936C00112341F12091860030912B
:10084000870080916B0086FF0DC0ADE6B0E080E0D0
:1008500090E0F901E80FF91FE491ED930196181764
:10086000C1F708C0912FD901EDE6F0E08D91819399
:100870009150E1F71150812F90E01F5F0196820F98
:10088000931F9093870080938600612F8DE690E000
:100890000E941002612F6C5F6C3019F08FEF809313
:1008A00063006093620094E180B3847131F49150ED
:1008B000D9F71092890010928300DF91CF911F9198
:1008C00008951F93DC01162F8091770084FF07C0E5
:1008D0008091780098E889278093780003C08AE5A2
:1008E00080937700912FE9E7F0E08D91819391500B
:1008F000E1F7612F89E790E00E9410021C5F1093DE
:1009000077001F91089597FB092E07260AD077FDDF
:1009100004D00CD006D000201AF4709561957F4F5A
:100920000895F6F7909581959F4F0895AA1BBB1BDC
:1009300051E107C0AA1FBB1FA617B70710F0A61BDF
:10094000B70B881F991F5A95A9F780959095BC0100
:08095000CD010895F894FFCFDA
:04095800C0015AFF81
:00000001FF
