:100000000C942A000C9447000C9447000C94470071
:100010000C9447000C9447000C9447000C94470044
:100020000C9447000C9447000C9447000C94470034
:100030000C9447000C9447000C9447000C94470024
:100040000C9447000C9447000C9447000C94470014
:100050000C94470011241FBECFE5D4E0DEBFCDBF16
:1000600010E0A0E6B0E0EAE9F3E002C005900D92EE
:10007000A637B107D9F710E0A6E7B0E001C01D929E
:10008000AA37B107E1F70E944A010C94CB010C9406
:10009000000087B3807F87BBC59AC49881E08A95AA
:1000A000F1F721E0C69A822F8A95F1F786B38295FF
:1000B000807F922F9A95F1F7C698922F9A95F1F733
:1000C000C69A922F9A95F1F796B3922F9A95F1F7D7
:1000D000C698922F9A95F1F787FDE4CFC59887B31C
:1000E0008F6087BB0895382F662311F4C49801C030
:1000F000C49A21E0822F8A95F1F7C69A88B3932F8C
:1001000092959F70807F982B98BB822F8A95F1F7EC
:10011000C698822F8A95F1F7C69A88B33F70807F80
:10012000832B88BB822F8A95F1F7C6982A95F1F721
:100130000E94490008951F93182F8CE49DE10197B8
:10014000F1F787B38F6087BBBE9ABC9ABD9A88B31C
:10015000807F88BBC698C598C49881E0982F9A95EF
:10016000F1F7C69AC19A982F9A95F1F7C6988A9591
:10017000F1F70E94490060E0812F8C600E947300BB
:1001800060E088E20E9473001F910895CF93DF938F
:10019000EC0104C061E00E947300219688818823ED
:1001A000C9F7DF91CF910895EF92FF920F931F93BC
:1001B000DF93CF9300D000D00F92CDB7DEB79C0174
:1001C0008B01FE01319685E0DF011D928A95E9F7EA
:1001D000FE0135960DC0C9016AE070E00E94A401DD
:1001E0008083C9016AE070E00E94A4019B013197FD
:1001F0002115310581F7BFEF0F3F1B0779F420E090
:1002000030E0AE014F5F5F4F02C02F5F3F4FFA01FA
:10021000E20FF31F80818823C1F304C025E030E0A2
:10022000201B310B7E010894E11CF11CE20EF31E31
:10023000890109C0F70181917F0161E0805D0E9421
:1002400073000F5F1F4F05301105A4F30F900F903F
:100250000F900F900F90CF91DF911F910F91FF9012
:10026000EF900895883230F46111806460E0806816
:100270000E947300089587E886B9089590E697B9BB
:1002800097B1982B97B9369A84EC99E00197F1F7DA
:1002900085B10895EF92FF921F93CF93DF938FEF75
:1002A00084BB82E00E949B0080E690E00E94C60032
:1002B00087E886B915BA20E137E210E6C4ECD9E048
:1002C00089E1E82EF12C05C0C7010197F1F7215013
:1002D000304021153105C1F760E081E00E947300D4
:1002E0008CE690E00E94C60017B987B187B9369AAC
:1002F000CE010197F1F785B164E070E090E00E94D3
:10030000D4008FE690E00E94C60017B9389A369A5A
:10031000CE010197F1F785B164E070E090E00E94B2
:10032000D40082E790E00E94C60017B9399A369A45
:10033000CE010197F1F785B164E070E090E00E9492
:10034000D40020E137E2C0CF97FB092E07260AD060
:1003500077FD04D00CD006D000201AF4709561957A
:100360007F4F0895F6F7909581959F4F0895AA1BAA
:10037000BB1B51E107C0AA1FBB1FA617B70710F090
:10038000A61BB70B881F991F5A95A9F780959095C2
:0A039000BC01CD010895F894FFCFE1
:10039A0048656C6C6F20576F726C6400783D007909
:0603AA003D007A3D000059
:00000001FF
