:100000000C9450000C94AE010C946D000C946D0097
:100010000C946D000C946D000C946D000C946D00AC
:100020000C946D000C946D000C946D000C946D009C
:100030000C946D000C946D000C946D000C946D008C
:100040000C946D000C946D000C946D000C946D007C
:100050000C946D000403090412036F006200640035
:10006000650076002E0061007400120354006500E4
:100070006D0070006C0061007400650012011001D9
:10008000FF000008C016DC050001010200010902A2
:10009000120001010080320904000000000000008D
:1000A00011241FBECFE5D4E0DEBFCDBF10E0A0E637
:1000B000B0E0EAEDF7E002C005900D92AA37B10773
:1000C000D9F710E0AAE7B0E001C01D92A53AB10748
:1000D000E1F70E9476010C94EB030C94000087B3C7
:1000E000807F87BBC59AC49882E08A95F1F722E0A9
:1000F00034E0C69A822F8A95F1F786B38295807F85
:10010000922F9A95F1F7C698932F9A95F1F7C69A80
:10011000922F9A95F1F796B3922F9A95F1F7C69888
:10012000932F9A95F1F787FDE4CFC59887B38F6039
:1001300087BB0895282F662311F4C49801C0C49A80
:1001400082E08A95F1F7C69A88B3922F92959F70B4
:10015000807F982B98BB94E0892F8A95F1F7C698F9
:10016000892F8A95F1F7C69A88B32F70807F822BEA
:1001700088BB892F8A95F1F7C6989A95F1F70E9466
:100180006F0008951F93182F8CE291E02CE231E06C
:10019000F9013197F1F70197D9F787B38F6087BBE2
:1001A000BE9ABC9ABD9A88B3807F88BBC698C59812
:1001B000C49881E08A95F1F7C69AC19A84E0982F95
:1001C0009A95F1F7C6988A95F1F70E946F0060E062
:1001D000812F8C600E949A0060E088E20E949A0061
:1001E0001F910895CF93DF93EC0104C061E00E945A
:1001F0009A00219688818823C9F7DF91CF910895CD
:10020000EF92FF920F931F93DF93CF9300D000D014
:100210000F92CDB7DEB79C018B01FE01319685E0D0
:10022000DF011D928A95E9F7FE0135960DC0C901DF
:100230006AE070E00E94C4038083C9016AE070E054
:100240000E94C4039B0131972115310581F7BFEF4F
:100250000F3F1B0779F420E030E0AE014F5F5F4FA6
:1002600002C02F5F3F4FFA01E20FF31F8081882306
:10027000C1F304C025E030E0201B310B7E0108945F
:10028000E11CF11CE20EF31E890109C0F701819106
:100290007F0161E0805D0E949A000F5F1F4F053073
:1002A0001105A4F30F900F900F900F900F90CF9126
:1002B000DF911F910F91FF90EF900895883230F4F5
:1002C0006111806460E080680E949A000895FC01DA
:1002D0008181882329F0813039F480E690E002C0E2
:1002E0008AE690E00E94F20080E0089582E00E9499
:1002F000C2002EE088E190E00FB6F894A89581BD89
:100300000FBE21BD0E94DB028C9A20E040E757E13E
:10031000A895CA010197F1F72F5F2A3FC9F78C987A
:100320007894A8950E94E202FCCFA82FB92F80E014
:1003300090E041E050EA609530E009C02D918227BD
:100340009795879510F084279527305EC8F36F5FE7
:10035000A8F30895EADF8D939D930895CF93CFB7C7
:10036000CF93C395849BE9F7849B09C0849B07C006
:10037000849B05C0849B03C0849B01C0A1C0DF9304
:10038000C0918800DD27C157DF4F849B02C0DF91F9
:10039000EBCF2F930F931F9300B32FEF04FB20F9A4
:1003A0004F933F9310B34FEF012704FB21F93BE03C
:1003B00031C04E7F012F10B3216028C0102F4D7F18
:1003C0002260000000B329C04B7F2460012F000091
:1003D00010B32BC010B3477F28602AC04F7E00B3F4
:1003E00020612CC04F7D10B320622FC04F7B00B323
:1003F000206432C0422700B349934FEF000010271A
:1004000014FB20F910B31471C9F1297F91F201276F
:1004100004FB21F900B3237F89F2315058F11027F2
:1004200014FB22F910B3277E79F2012704FB23F98C
:100430002F7C81F200B3102714FB24F92F7971F27D
:1004400000C010B3012704FB25F92F7359F200C037
:1004500000B3102714FB26F9223040F200C010B37D
:10046000012704FB27F9243028F64F77206810B3C2
:100470000000F9CF10E41ABF002717C03B50319598
:10048000C31BD04010E41ABF0881033CE9F00B34D1
:10049000D9F0209186001981110F1213EDCF093682
:1004A00041F10D3211F0013E39F700938D003F917B
:1004B0004F911F910F912F91DF91CAB7C6FD51CF78
:1004C000CF91CFBFCF91189520918D00222379F342
:1004D00010918B00112311F5343012F130938B0001
:1004E00020938700109188003BE0311B30938800F7
:1004F00017C000918B0001308CF40AE53091780030
:1005000034FD10C000937800CBE7D0E00FC02795F2
:10051000A8F45150A9F4220F0000F9CF4AE503C016
:1005200042ED01C0432FC4E1D0E032E011B31461C9
:10053000949A11BB02B320E414E15F93012756E0C3
:1005400002BB279520F4515021F4220FF9CF012747
:1005500056E000003B5A02BBD0F2279528F45150D8
:1005600029F4220F0000F9CF012756E0279502BB9E
:1005700020F4515021F4220FF9CF012756E02991A0
:10058000332302BB21F60B7E10918C00110FC65154
:10059000D04002BB11F01093860010E41ABF006136
:1005A00011B31B7E402F4B7E5F9100C000C002BB89
:1005B00011BB42BB7CCF85B7826085BF8BB780649F
:1005C0008BBF08951F93CF93DF9390918B0093502F
:1005D00097FD7EC020918800809187008D3209F0C0
:1005E00075C0983009F072C0CCE0D0E0C21BD109D0
:1005F000C157DF4F83EC80937B008AE580937800BE
:1006000010927A008881807629F0CE010E946701DD
:10061000282F53C09A81109284008981882321F465
:100620001092850022E043C0853019F490938C002D
:100630003DC0863061F58B81813019F48CE790E004
:1006400016C0823019F48EE890E011C08330D1F4E6
:100650008A81882341F484E590E090938A00809316
:10066000890024E010C0813041F488E590E0909347
:100670008A008093890022E106C0823019F48AE65C
:1006800090E0F5CF20E080E480937A0016C08830B7
:1006900021F421E08EE890E00CC0893019F49093A9
:1006A0008E0004C08A3011F421E001C020E084E80B
:1006B00090E090938A00809389008F81882321F4B1
:1006C0008E81821708F4282F2093790010928B00D6
:1006D0008091780084FF4AC0809179008F3F09F4AF
:1006E00045C0182F893008F018E0811B80937900ED
:1006F00080917B0098E8892780937B00112341F14A
:100700002091890030918A0080917A0086FF0DC087
:10071000ACE7B0E080E090E0F901E80FF91FE49168
:10072000ED9301961817C1F708C0912FD901ECE796
:10073000F0E08D9181939150E1F71150812F90E07D
:100740001F5F0196820F931F90938A008093890008
:10075000612F8CE790E00E94AA01612F6C5F6C30E2
:1007600019F08FEF809379006093780094E180B363
:10077000847131F49150D9F710928C001092860058
:10078000DF91CF911F91089597FB092E07260AD07C
:1007900077FD04D00CD006D000201AF47095619536
:1007A0007F4F0895F6F7909581959F4F0895AA1B66
:1007B000BB1B51E107C0AA1FBB1FA617B70710F04C
:1007C000A61BB70B881F991F5A95A9F7809590957E
:0A07D000BC01CD010895F894FFCF9D
:1007DA0053756365657366756C006E6F7420737507
:0A07EA006365737366756C005AFFB7
:00000001FF
