:100000000C9450000C94A6000C946D000C946D00A0
:100010000C946D000C946D000C946D000C946D00AC
:100020000C946D000C946D000C946D000C946D009C
:100030000C946D000C946D000C946D000C946D008C
:100040000C946D000C946D000C946D000C946D007C
:100050000C946D000403090412036F006200640035
:10006000650076002E0061007400120354006500E4
:100070006D0070006C0061007400650012011001D9
:10008000FF000008C016DC050001010200010902A2
:10009000120001010080320904000000000000008D
:1000A00011241FBECFE5D4E0DEBFCDBF10E0A0E637
:1000B000B0E0E8E8F7E002C005900D92A236B10783
:1000C000D9F710E0A2E6B0E001C01D92AD38B1074B
:1000D000E1F70E9471000C94C2030C94000080E0D0
:1000E00008952EE088E190E00FB6F894A89581BDC0
:1000F0000FBE21BD0E94B2028C9A20E040E45FE175
:10010000A895CA010197F1F72F5F2A3FC9F78C988C
:100110007894A8950E94B902FCCFA82FB92F80E04F
:1001200090E041E050EA609530E009C02D918227CF
:100130009795879510F084279527305EC8F36F5FF9
:10014000A8F30895EADF8D939D930895CF93CFB7D9
:10015000CF93DF93C395849BE9F7849B0BC0849B6B
:1001600009C0849B07C0849B05C0849B03C0849BFB
:1001700001C089C06F93C0917000DD27C958DF4F5F
:100180002F9365E5849B03C02F916F91E6CF0F936A
:100190001F934F9320E040E15F9300B3047104FB91
:1001A00027F93F9350E03BE039C0147140642F774A
:1001B000012F5F5F1EC0406810B314712F7752503B
:1001C0001FC0406400B32F770471D1F15F5F00C09E
:1001D00023C0406210B32F77147191F15F5F00C0AC
:1001E00025C004711027515012F45D5F00001150BA
:1001F00027952C3F10B3C8F614710127015027959D
:100200002C3FC8F64227499300B3047110274F735F
:10021000115027952C3FA8F64695469510B31471BA
:1002200079F00127015027952C3F98F66B5A60F31F
:10023000315000B3B0F600C010E41ABF002717C059
:100240003B503195C31BD04010E41ABF0881033CDA
:10025000F9F00B34E9F020916E001981110F12139F
:10026000EDCF093651F10D3211F0013E39F700930F
:1002700075003F915F914F911F910F912F916F9159
:10028000CAB7C6FD67CFDF91CF91CFBFCF91189589
:1002900020917500222369F310917300112339F521
:1002A00034303AF13093730020936F001091700056
:1002B0003BE0311B309370001CC000917300013093
:1002C000B4F40AE53091600034FD14C0009360007E
:1002D000C3E6D0E013C0052710E000C0000002BB59
:1002E0001AC0052710E0221F1DC010E021C04AE5FA
:1002F00002C032ED432FC4E1D0E032E011B314610B
:10030000949A02B311BB54E120E865E320FF05276E
:1003100002BB279517951C3FF0F66695B8F7B1F725
:1003200020FF052702BB279517951C3FD0F6279580
:10033000179517FF052700001C3F02BBB0F6299157
:100340003A9519F70B7E10917400110FC651D040E9
:1003500002BB11F010936E0010E41ABF006111B3DC
:100360001B7E402F4B7E54E05A95F1F702BB11BB28
:1003700042BB7FCF87B3807F87BBC59AC49882E09A
:100380008A95F1F722E034E0C69A822F8A95F1F738
:1003900086B38295807F922F9A95F1F7C698932F16
:1003A0009A95F1F7C69A922F9A95F1F796B3922FF4
:1003B0009A95F1F7C698932F9A95F1F787FDE4CFB8
:1003C000C59887B38F6087BB0895282F662311F4E3
:1003D000C49801C0C49A82E08A95F1F7C69A88B39E
:1003E000922F92959F70807F982B98BB94E0892FD5
:1003F0008A95F1F7C698892F8A95F1F7C69A88B33E
:100400002F70807F822B88BB892F8A95F1F7C69841
:100410009A95F1F70E94BA0108951F93182F8CE264
:1004200091E02CE231E0F9013197F1F70197D9F72A
:1004300087B38F6087BBBE9ABC9ABD9A88B3807F12
:1004400088BBC698C598C49881E08A95F1F7C69A8A
:10045000C19A84E0982F9A95F1F7C6988A95F1F79A
:100460000E94BA0160E0812F8C600E94E50160E08B
:1004700088E20E94E5011F910895CF93DF93EC017C
:1004800004C061E00E94E501219688818823C9F7B4
:10049000DF91CF910895EF92FF920F931F93DF9317
:1004A000CF9300D000D00F92CDB7DEB79C018B0167
:1004B000FE01319685E0DF011D928A95E9F7FE0184
:1004C00035960DC0C9016AE070E00E949B038083ED
:1004D000C9016AE070E00E949B039B0131972115DE
:1004E000310581F7BFEF0F3F1B0779F420E030E0C3
:1004F000AE014F5F5F4F02C02F5F3F4FFA01E20F27
:10050000F31F80818823C1F304C025E030E0201B65
:10051000310B7E010894E11CF11CE20EF31E8901EF
:1005200009C0F70181917F0161E0805D0E94E501D2
:100530000F5F1F4F05301105A4F30F900F900F9020
:100540000F900F90CF91DF911F910F91FF90EF903F
:100550000895883230F46111806460E080680E9400
:10056000E501089585B7826085BF8BB780648BBF36
:1005700008951F93CF93DF9390917300935097FD4D
:100580007EC02091700080916F008D3209F075C09F
:10059000983009F072C0CCE0D0E0C21BD109C95834
:1005A000DF4F83EC809363008AE5809360001092B4
:1005B00062008881807629F0CE010E946F00282F8A
:1005C00053C09A8110926C008981882321F4109283
:1005D0006D0022E043C0853019F4909374003DC053
:1005E000863061F58B81813019F48CE790E016C07C
:1005F000823019F48EE890E011C08330D1F48A8102
:10060000882341F484E590E0909372008093710018
:1006100024E010C0813041F488E590E090937200AE
:100620008093710022E106C0823019F48AE690E0DE
:10063000F5CF20E080E48093620016C0883021F47A
:1006400021E086E790E00CC0893019F490937600A1
:1006500004C08A3011F421E001C020E08CE690E073
:1006600090937200809371008F81882321F48E8192
:10067000821708F4282F2093610010927300809154
:10068000600084FF4AC0809161008F3F09F445C03B
:10069000182F893008F018E0811B80936100809149
:1006A000630098E8892780936300112341F120912A
:1006B0007100309172008091620086FF0DC0A4E647
:1006C000B0E080E090E0F901E80FF91FE491ED93CC
:1006D00001961817C1F708C0912FD901E4E6F0E0A0
:1006E0008D9181939150E1F71150812F90E01F5F20
:1006F0000196820F931F9093720080937100612F77
:1007000084E690E00E94A200612F6C5F6C3019F0CB
:100710008FEF809361006093600094E180B38471F7
:1007200031F49150D9F71092740010926E00DF915D
:10073000CF911F91089597FB092E07260AD077FDC8
:1007400004D00CD006D000201AF4709561957F4F2C
:100750000895F6F7909581959F4F0895AA1BBB1BAE
:1007600051E107C0AA1FBB1FA617B70710F0A61BB1
:10077000B70B881F991F5A95A9F780959095BC01D2
:08078000CD010895F894FFCFAC
:020788005AFF16
:00000001FF
